{
  "_format": "hh-sol-artifact-1",
  "contractName": "MyEpicNFT",
  "sourceName": "contracts/MyEpicNFT.sol",
  "abi": [
    {
      "inputs": [],
      "stateMutability": "nonpayable",
      "type": "constructor"
    },
    {
      "anonymous": false,
      "inputs": [
        {
          "indexed": true,
          "internalType": "address",
          "name": "owner",
          "type": "address"
        },
        {
          "indexed": true,
          "internalType": "address",
          "name": "approved",
          "type": "address"
        },
        {
          "indexed": true,
          "internalType": "uint256",
          "name": "tokenId",
          "type": "uint256"
        }
      ],
      "name": "Approval",
      "type": "event"
    },
    {
      "anonymous": false,
      "inputs": [
        {
          "indexed": true,
          "internalType": "address",
          "name": "owner",
          "type": "address"
        },
        {
          "indexed": true,
          "internalType": "address",
          "name": "operator",
          "type": "address"
        },
        {
          "indexed": false,
          "internalType": "bool",
          "name": "approved",
          "type": "bool"
        }
      ],
      "name": "ApprovalForAll",
      "type": "event"
    },
    {
      "anonymous": false,
      "inputs": [
        {
          "indexed": false,
          "internalType": "address",
          "name": "sender",
          "type": "address"
        },
        {
          "indexed": false,
          "internalType": "uint256",
          "name": "tokenId",
          "type": "uint256"
        }
      ],
      "name": "NewEpicNFTMinted",
      "type": "event"
    },
    {
      "anonymous": false,
      "inputs": [
        {
          "indexed": true,
          "internalType": "address",
          "name": "from",
          "type": "address"
        },
        {
          "indexed": true,
          "internalType": "address",
          "name": "to",
          "type": "address"
        },
        {
          "indexed": true,
          "internalType": "uint256",
          "name": "tokenId",
          "type": "uint256"
        }
      ],
      "name": "Transfer",
      "type": "event"
    },
    {
      "inputs": [
        {
          "internalType": "address",
          "name": "to",
          "type": "address"
        },
        {
          "internalType": "uint256",
          "name": "tokenId",
          "type": "uint256"
        }
      ],
      "name": "approve",
      "outputs": [],
      "stateMutability": "nonpayable",
      "type": "function"
    },
    {
      "inputs": [
        {
          "internalType": "address",
          "name": "owner",
          "type": "address"
        }
      ],
      "name": "balanceOf",
      "outputs": [
        {
          "internalType": "uint256",
          "name": "",
          "type": "uint256"
        }
      ],
      "stateMutability": "view",
      "type": "function"
    },
    {
      "inputs": [
        {
          "internalType": "uint256",
          "name": "tokenId",
          "type": "uint256"
        }
      ],
      "name": "getApproved",
      "outputs": [
        {
          "internalType": "address",
          "name": "",
          "type": "address"
        }
      ],
      "stateMutability": "view",
      "type": "function"
    },
    {
      "inputs": [],
      "name": "getTotalNFTsMintedSoFar",
      "outputs": [
        {
          "internalType": "uint256",
          "name": "",
          "type": "uint256"
        }
      ],
      "stateMutability": "view",
      "type": "function"
    },
    {
      "inputs": [
        {
          "internalType": "address",
          "name": "owner",
          "type": "address"
        },
        {
          "internalType": "address",
          "name": "operator",
          "type": "address"
        }
      ],
      "name": "isApprovedForAll",
      "outputs": [
        {
          "internalType": "bool",
          "name": "",
          "type": "bool"
        }
      ],
      "stateMutability": "view",
      "type": "function"
    },
    {
      "inputs": [],
      "name": "makeAnEpicNFT",
      "outputs": [],
      "stateMutability": "nonpayable",
      "type": "function"
    },
    {
      "inputs": [],
      "name": "name",
      "outputs": [
        {
          "internalType": "string",
          "name": "",
          "type": "string"
        }
      ],
      "stateMutability": "view",
      "type": "function"
    },
    {
      "inputs": [
        {
          "internalType": "uint256",
          "name": "tokenId",
          "type": "uint256"
        }
      ],
      "name": "ownerOf",
      "outputs": [
        {
          "internalType": "address",
          "name": "",
          "type": "address"
        }
      ],
      "stateMutability": "view",
      "type": "function"
    },
    {
      "inputs": [
        {
          "internalType": "uint256",
          "name": "tokenId",
          "type": "uint256"
        }
      ],
      "name": "pickRandomColor",
      "outputs": [
        {
          "internalType": "string",
          "name": "",
          "type": "string"
        }
      ],
      "stateMutability": "view",
      "type": "function"
    },
    {
      "inputs": [
        {
          "internalType": "uint256",
          "name": "tokenId",
          "type": "uint256"
        }
      ],
      "name": "pickRandomFirstWord",
      "outputs": [
        {
          "internalType": "string",
          "name": "",
          "type": "string"
        }
      ],
      "stateMutability": "view",
      "type": "function"
    },
    {
      "inputs": [
        {
          "internalType": "uint256",
          "name": "tokenId",
          "type": "uint256"
        }
      ],
      "name": "pickRandomSecondWord",
      "outputs": [
        {
          "internalType": "string",
          "name": "",
          "type": "string"
        }
      ],
      "stateMutability": "view",
      "type": "function"
    },
    {
      "inputs": [
        {
          "internalType": "uint256",
          "name": "tokenId",
          "type": "uint256"
        }
      ],
      "name": "pickRandomThirdWord",
      "outputs": [
        {
          "internalType": "string",
          "name": "",
          "type": "string"
        }
      ],
      "stateMutability": "view",
      "type": "function"
    },
    {
      "inputs": [
        {
          "internalType": "address",
          "name": "from",
          "type": "address"
        },
        {
          "internalType": "address",
          "name": "to",
          "type": "address"
        },
        {
          "internalType": "uint256",
          "name": "tokenId",
          "type": "uint256"
        }
      ],
      "name": "safeTransferFrom",
      "outputs": [],
      "stateMutability": "nonpayable",
      "type": "function"
    },
    {
      "inputs": [
        {
          "internalType": "address",
          "name": "from",
          "type": "address"
        },
        {
          "internalType": "address",
          "name": "to",
          "type": "address"
        },
        {
          "internalType": "uint256",
          "name": "tokenId",
          "type": "uint256"
        },
        {
          "internalType": "bytes",
          "name": "_data",
          "type": "bytes"
        }
      ],
      "name": "safeTransferFrom",
      "outputs": [],
      "stateMutability": "nonpayable",
      "type": "function"
    },
    {
      "inputs": [
        {
          "internalType": "address",
          "name": "operator",
          "type": "address"
        },
        {
          "internalType": "bool",
          "name": "approved",
          "type": "bool"
        }
      ],
      "name": "setApprovalForAll",
      "outputs": [],
      "stateMutability": "nonpayable",
      "type": "function"
    },
    {
      "inputs": [
        {
          "internalType": "bytes4",
          "name": "interfaceId",
          "type": "bytes4"
        }
      ],
      "name": "supportsInterface",
      "outputs": [
        {
          "internalType": "bool",
          "name": "",
          "type": "bool"
        }
      ],
      "stateMutability": "view",
      "type": "function"
    },
    {
      "inputs": [],
      "name": "symbol",
      "outputs": [
        {
          "internalType": "string",
          "name": "",
          "type": "string"
        }
      ],
      "stateMutability": "view",
      "type": "function"
    },
    {
      "inputs": [
        {
          "internalType": "uint256",
          "name": "tokenId",
          "type": "uint256"
        }
      ],
      "name": "tokenURI",
      "outputs": [
        {
          "internalType": "string",
          "name": "",
          "type": "string"
        }
      ],
      "stateMutability": "view",
      "type": "function"
    },
    {
      "inputs": [
        {
          "internalType": "address",
          "name": "from",
          "type": "address"
        },
        {
          "internalType": "address",
          "name": "to",
          "type": "address"
        },
        {
          "internalType": "uint256",
          "name": "tokenId",
          "type": "uint256"
        }
      ],
      "name": "transferFrom",
      "outputs": [],
      "stateMutability": "nonpayable",
      "type": "function"
    }
  ],
  "bytecode": "0x608060405260405180610100016040528060d38152602001620054a260d3913960089080519060200190620000369291906200163e565b50604051806080016040528060568152602001620055756056913960099080519060200190620000689291906200163e565b506040518061034001604052806040518060400160405280600581526020017f416261636b00000000000000000000000000000000000000000000000000000081525081526020016040518060400160405280600981526020017f4162616e646f6e6564000000000000000000000000000000000000000000000081525081526020016040518060400160405280600781526020017f416261736865640000000000000000000000000000000000000000000000000081525081526020016040518060400160405280600881526020017f4162657272616e7400000000000000000000000000000000000000000000000081525081526020016040518060400160405280600881526020017f41626e6f726d616c00000000000000000000000000000000000000000000000081525081526020016040518060400160405280600a81526020017f41626f726967696e616c0000000000000000000000000000000000000000000081525081526020016040518060400160405280600881526020017f41626f727469766500000000000000000000000000000000000000000000000081525081526020016040518060400160405280600881526020017f416272617369766500000000000000000000000000000000000000000000000081525081526020016040518060400160405280600681526020017f416272757074000000000000000000000000000000000000000000000000000081525081526020016040518060400160405280600681526020017f416273656e74000000000000000000000000000000000000000000000000000081525081526020016040518060400160405280600881526020017f4162736f7262656400000000000000000000000000000000000000000000000081525081526020016040518060400160405280600981526020017f4162736f7262696e67000000000000000000000000000000000000000000000081525081526020016040518060400160405280600a81526020017f416273747261637465640000000000000000000000000000000000000000000081525081526020016040518060400160405280600681526020017f416273757264000000000000000000000000000000000000000000000000000081525081526020016040518060400160405280600881526020017f4162756e64616e7400000000000000000000000000000000000000000000000081525081526020016040518060400160405280600781526020017f416275736976650000000000000000000000000000000000000000000000000081525081526020016040518060400160405280600a81526020017f41636365707461626c650000000000000000000000000000000000000000000081525081526020016040518060400160405280600a81526020017f41636365737369626c650000000000000000000000000000000000000000000081525081526020016040518060400160405280600a81526020017f4163636964656e74616c0000000000000000000000000000000000000000000081525081526020016040518060400160405280600881526020017f416363757261746500000000000000000000000000000000000000000000000081525081526020016040518060400160405280600481526020017f416369640000000000000000000000000000000000000000000000000000000081525081526020016040518060400160405280600681526020017f416369646963000000000000000000000000000000000000000000000000000081525081526020016040518060400160405280600881526020017f41636f757374696300000000000000000000000000000000000000000000000081525081526020016040518060400160405280600581526020017f416372696400000000000000000000000000000000000000000000000000000081525081526020016040518060400160405280600781526020017f4164616d616e740000000000000000000000000000000000000000000000000081525081526020016040518060400160405280600981526020017f416461707461626c650000000000000000000000000000000000000000000000815250815250600a90601a62000683929190620016cf565b506040518061038001604052806040518060400160405280600981526020017f427275736365747461000000000000000000000000000000000000000000000081525081526020016040518060400160405280600581526020017f4261636f6e00000000000000000000000000000000000000000000000000000081525081526020016040518060400160405280600481526020017f4265616e0000000000000000000000000000000000000000000000000000000081525081526020016040518060400160405280600581526020017f426167656c00000000000000000000000000000000000000000000000000000081525081526020016040518060400160405280600581526020017f42616b656400000000000000000000000000000000000000000000000000000081525081526020016040518060400160405280600581526020017f4269736f6e00000000000000000000000000000000000000000000000000000081525081526020016040518060400160405280600681526020017f4261726c6579000000000000000000000000000000000000000000000000000081525081526020016040518060400160405280600481526020017f426565720000000000000000000000000000000000000000000000000000000081525081526020016040518060400160405280600481526020017f466973680000000000000000000000000000000000000000000000000000000081525081526020016040518060400160405280600581526020017f427265616400000000000000000000000000000000000000000000000000000081525081526020016040518060400160405280600881526020017f42726f63636f6c6900000000000000000000000000000000000000000000000081525081526020016040518060400160405280600781526020017f4275726974746f0000000000000000000000000000000000000000000000000081525081526020016040518060400160405280600b81526020017f4261626167616e6f6f736800000000000000000000000000000000000000000081525081526020016040518060400160405280600781526020017f436162626167650000000000000000000000000000000000000000000000000081525081526020016040518060400160405280600481526020017f43616b650000000000000000000000000000000000000000000000000000000081525081526020016040518060400160405280600681526020017f436172726f74000000000000000000000000000000000000000000000000000081525081526020016040518060400160405280600b81526020017f43656c657243686565736500000000000000000000000000000000000000000081525081526020016040518060400160405280600781526020017f436869636b656e0000000000000000000000000000000000000000000000000081525081526020016040518060400160405280600781526020017f436174666973680000000000000000000000000000000000000000000000000081525081526020016040518060400160405280600581526020017f436869707300000000000000000000000000000000000000000000000000000081525081526020016040518060400160405280600981526020017f43686f636f6c617465000000000000000000000000000000000000000000000081525081526020016040518060400160405280600781526020017f43686f776465720000000000000000000000000000000000000000000000000081525081526020016040518060400160405280600481526020017f436c616d0000000000000000000000000000000000000000000000000000000081525081526020016040518060400160405280600d81526020017f436f66666565436f6f6b6965730000000000000000000000000000000000000081525081526020016040518060400160405280600481526020017f436f726e0000000000000000000000000000000000000000000000000000000081525081526020016040518060400160405280600881526020017f43757063616b657300000000000000000000000000000000000000000000000081525081526020016040518060400160405280600481526020017f437261620000000000000000000000000000000000000000000000000000000081525081526020016040518060400160405280600581526020017f4375727279000000000000000000000000000000000000000000000000000000815250815250600b90601c62000d1492919062001736565b506040518061032001604052806040518060400160405280600681526020017f416c65747461000000000000000000000000000000000000000000000000000081525081526020016040518060400160405280600481526020017f416e6a750000000000000000000000000000000000000000000000000000000081525081526020016040518060400160405280600481526020017f416f62610000000000000000000000000000000000000000000000000000000081525081526020016040518060400160405280600581526020017f4173756b6100000000000000000000000000000000000000000000000000000081525081526020016040518060400160405280600581526020017f4179616e6f00000000000000000000000000000000000000000000000000000081525081526020016040518060400160405280600981526020017f42616c616c61696b61000000000000000000000000000000000000000000000081525081526020016040518060400160405280600381526020017f426f61000000000000000000000000000000000000000000000000000000000081525081526020016040518060400160405280600781526020017f43686f6f756b6f0000000000000000000000000000000000000000000000000081525081526020016040518060400160405280600581526020017f436869796f00000000000000000000000000000000000000000000000000000081525081526020016040518060400160405280600781526020017f44616973756b650000000000000000000000000000000000000000000000000081525081526020016040518060400160405280600381526020017f456d69000000000000000000000000000000000000000000000000000000000081525081526020016040518060400160405280600581526020017f456e6e697300000000000000000000000000000000000000000000000000000081525081526020016040518060400160405280600681526020017f46756d696b6f000000000000000000000000000000000000000000000000000081525081526020016040518060400160405280600581526020017f476161726100000000000000000000000000000000000000000000000000000081525081526020016040518060400160405280600581526020017f477970737900000000000000000000000000000000000000000000000000000081525081526020016040518060400160405280600481526020017f48616e610000000000000000000000000000000000000000000000000000000081525081526020016040518060400160405280600681526020017f48616e6e7961000000000000000000000000000000000000000000000000000081525081526020016040518060400160405280600681526020017f486964656b6f000000000000000000000000000000000000000000000000000081525081526020016040518060400160405280600581526020017f4973616d7500000000000000000000000000000000000000000000000000000081525081526020016040518060400160405280600781526020017f4a756e696368690000000000000000000000000000000000000000000000000081525081526020016040518060400160405280600681526020017f4b616d696b6f000000000000000000000000000000000000000000000000000081525081526020016040518060400160405280600581526020017f4b616e6f6e00000000000000000000000000000000000000000000000000000081525081526020016040518060400160405280600681526020017f4b6f6b6f726f000000000000000000000000000000000000000000000000000081525081526020016040518060400160405280600481526020017f4c696e610000000000000000000000000000000000000000000000000000000081525081526020016040518060400160405280600481526020017f4c75637900000000000000000000000000000000000000000000000000000000815250815250600c906019620012f49291906200179d565b506040518060c001604052806040518060400160405280600381526020017f726564000000000000000000000000000000000000000000000000000000000081525081526020016040518060400160405280600781526020017f233038433241380000000000000000000000000000000000000000000000000081525081526020016040518060400160405280600581526020017f626c61636b00000000000000000000000000000000000000000000000000000081525081526020016040518060400160405280600681526020017f79656c6c6f77000000000000000000000000000000000000000000000000000081525081526020016040518060400160405280600481526020017f626c75650000000000000000000000000000000000000000000000000000000081525081526020016040518060400160405280600581526020017f677265656e000000000000000000000000000000000000000000000000000000815250815250600d9060066200147292919062001804565b503480156200148057600080fd5b506040518060400160405280600981526020017f5371756172654e465400000000000000000000000000000000000000000000008152506040518060400160405280600681526020017f53515541524500000000000000000000000000000000000000000000000000008152508160009080519060200190620015059291906200163e565b5080600190805190602001906200151e9291906200163e565b5050506200156c6040518060400160405280601e81526020017f54686973206973206d79204e465420636f6e74726163742e20576f61682100008152506200157260201b620012641760201c565b62001a25565b620016128160405160240162001589919062001939565b6040516020818303038152906040527f41304fac000000000000000000000000000000000000000000000000000000007bffffffffffffffffffffffffffffffffffffffffffffffffffffffff19166020820180517bffffffffffffffffffffffffffffffffffffffffffffffffffffffff83818316178352505050506200161560201b60201c565b50565b60008151905060006a636f6e736f6c652e6c6f679050602083016000808483855afa5050505050565b8280546200164c90620019af565b90600052602060002090601f016020900481019282620016705760008555620016bc565b82601f106200168b57805160ff1916838001178555620016bc565b82800160010185558215620016bc579182015b82811115620016bb5782518255916020019190600101906200169e565b5b509050620016cb91906200186b565b5090565b82805482825590600052602060002090810192821562001723579160200282015b8281111562001722578251829080519060200190620017119291906200163e565b5091602001919060010190620016f0565b5b5090506200173291906200188a565b5090565b8280548282559060005260206000209081019282156200178a579160200282015b8281111562001789578251829080519060200190620017789291906200163e565b509160200191906001019062001757565b5b5090506200179991906200188a565b5090565b828054828255906000526020600020908101928215620017f1579160200282015b82811115620017f0578251829080519060200190620017df9291906200163e565b5091602001919060010190620017be565b5b5090506200180091906200188a565b5090565b82805482825590600052602060002090810192821562001858579160200282015b8281111562001857578251829080519060200190620018469291906200163e565b509160200191906001019062001825565b5b5090506200186791906200188a565b5090565b5b80821115620018865760008160009055506001016200186c565b5090565b5b80821115620018ae5760008181620018a49190620018b2565b506001016200188b565b5090565b508054620018c090620019af565b6000825580601f10620018d45750620018f5565b601f016020900490600052602060002090810190620018f491906200186b565b5b50565b600062001905826200195d565b62001911818562001968565b93506200192381856020860162001979565b6200192e8162001a14565b840191505092915050565b60006020820190508181036000830152620019558184620018f8565b905092915050565b600081519050919050565b600082825260208201905092915050565b60005b83811015620019995780820151818401526020810190506200197c565b83811115620019a9576000848401525b50505050565b60006002820490506001821680620019c857607f821691505b60208210811415620019df57620019de620019e5565b5b50919050565b7f4e487b7100000000000000000000000000000000000000000000000000000000600052602260045260246000fd5b6000601f19601f8301169050919050565b613a6d8062001a356000396000f3fe608060405234801561001057600080fd5b50600436106101215760003560e01c80636352211e116100ad578063b88d4fde11610071578063b88d4fde14610340578063c575757a1461035c578063c87b56dd1461038c578063de9d132f146103bc578063e985e9c5146103c657610121565b80636352211e1461027657806370a08231146102a657806395d89b41146102d6578063a22cb465146102f4578063b187301f1461031057610121565b8063095ea7b3116100f4578063095ea7b3146101c257806323b872dd146101de5780632de38d68146101fa57806342842e0e1461022a578063514dc8c61461024657610121565b806301ffc9a714610126578063060475901461015657806306fdde0314610174578063081812fc14610192575b600080fd5b610140600480360381019061013b9190612645565b6103f6565b60405161014d91906132e3565b60405180910390f35b61015e6104d8565b60405161016b919061355e565b60405180910390f35b61017c6104e9565b60405161018991906132fe565b60405180910390f35b6101ac60048036038101906101a79190612697565b61057b565b6040516101b99190613253565b60405180910390f35b6101dc60048036038101906101d79190612609565b610600565b005b6101f860048036038101906101f39190612503565b610718565b005b610214600480360381019061020f9190612697565b610778565b60405161022191906132fe565b60405180910390f35b610244600480360381019061023f9190612503565b610896565b005b610260600480360381019061025b9190612697565b6108b6565b60405161026d91906132fe565b60405180910390f35b610290600480360381019061028b9190612697565b6109d4565b60405161029d9190613253565b60405180910390f35b6102c060048036038101906102bb919061249e565b610a86565b6040516102cd919061355e565b60405180910390f35b6102de610b3e565b6040516102eb91906132fe565b60405180910390f35b61030e600480360381019061030991906125cd565b610bd0565b005b61032a60048036038101906103259190612697565b610be6565b60405161033791906132fe565b60405180910390f35b61035a60048036038101906103559190612552565b610d04565b005b61037660048036038101906103719190612697565b610d66565b60405161038391906132fe565b60405180910390f35b6103a660048036038101906103a19190612697565b610e84565b6040516103b391906132fe565b60405180910390f35b6103c4610fd6565b005b6103e060048036038101906103db91906124c7565b6111d0565b6040516103ed91906132e3565b60405180910390f35b60007f80ac58cd000000000000000000000000000000000000000000000000000000007bffffffffffffffffffffffffffffffffffffffffffffffffffffffff1916827bffffffffffffffffffffffffffffffffffffffffffffffffffffffff191614806104c157507f5b5e139f000000000000000000000000000000000000000000000000000000007bffffffffffffffffffffffffffffffffffffffffffffffffffffffff1916827bffffffffffffffffffffffffffffffffffffffffffffffffffffffff1916145b806104d157506104d0826112fd565b5b9050919050565b60006104e46007611367565b905090565b6060600080546104f8906137fd565b80601f0160208091040260200160405190810160405280929190818152602001828054610524906137fd565b80156105715780601f1061054657610100808354040283529160200191610571565b820191906000526020600020905b81548152906001019060200180831161055457829003601f168201915b5050505050905090565b600061058682611375565b6105c5576040517f08c379a00000000000000000000000000000000000000000000000000000000081526004016105bc906134be565b60405180910390fd5b6004600083815260200190815260200160002060009054906101000a900473ffffffffffffffffffffffffffffffffffffffff169050919050565b600061060b826109d4565b90508073ffffffffffffffffffffffffffffffffffffffff168373ffffffffffffffffffffffffffffffffffffffff16141561067c576040517f08c379a00000000000000000000000000000000000000000000000000000000081526004016106739061351e565b60405180910390fd5b8073ffffffffffffffffffffffffffffffffffffffff1661069b6113e1565b73ffffffffffffffffffffffffffffffffffffffff1614806106ca57506106c9816106c46113e1565b6111d0565b5b610709576040517f08c379a0000000000000000000000000000000000000000000000000000000008152600401610700906133fe565b60405180910390fd5b61071383836113e9565b505050565b6107296107236113e1565b826114a2565b610768576040517f08c379a000000000000000000000000000000000000000000000000000000000815260040161075f9061353e565b60405180910390fd5b610773838383611580565b505050565b606060006107ac610788846117dc565b60405160200161079891906131ed565b604051602081830303815290604052611989565b9050600a80549050816107bf9190613878565b9050600a81815481106107fb577f4e487b7100000000000000000000000000000000000000000000000000000000600052603260045260246000fd5b906000526020600020018054610810906137fd565b80601f016020809104026020016040519081016040528092919081815260200182805461083c906137fd565b80156108895780601f1061085e57610100808354040283529160200191610889565b820191906000526020600020905b81548152906001019060200180831161086c57829003601f168201915b5050505050915050919050565b6108b183838360405180602001604052806000815250610d04565b505050565b606060006108ea6108c6846117dc565b6040516020016108d69190613231565b604051602081830303815290604052611989565b9050600d80549050816108fd9190613878565b9050600d8181548110610939577f4e487b7100000000000000000000000000000000000000000000000000000000600052603260045260246000fd5b90600052602060002001805461094e906137fd565b80601f016020809104026020016040519081016040528092919081815260200182805461097a906137fd565b80156109c75780601f1061099c576101008083540402835291602001916109c7565b820191906000526020600020905b8154815290600101906020018083116109aa57829003601f168201915b5050505050915050919050565b6000806002600084815260200190815260200160002060009054906101000a900473ffffffffffffffffffffffffffffffffffffffff169050600073ffffffffffffffffffffffffffffffffffffffff168173ffffffffffffffffffffffffffffffffffffffff161415610a7d576040517f08c379a0000000000000000000000000000000000000000000000000000000008152600401610a749061343e565b60405180910390fd5b80915050919050565b60008073ffffffffffffffffffffffffffffffffffffffff168273ffffffffffffffffffffffffffffffffffffffff161415610af7576040517f08c379a0000000000000000000000000000000000000000000000000000000008152600401610aee9061341e565b60405180910390fd5b600360008373ffffffffffffffffffffffffffffffffffffffff1673ffffffffffffffffffffffffffffffffffffffff168152602001908152602001600020549050919050565b606060018054610b4d906137fd565b80601f0160208091040260200160405190810160405280929190818152602001828054610b79906137fd565b8015610bc65780601f10610b9b57610100808354040283529160200191610bc6565b820191906000526020600020905b815481529060010190602001808311610ba957829003601f168201915b5050505050905090565b610be2610bdb6113e1565b83836119bc565b5050565b60606000610c1a610bf6846117dc565b604051602001610c069190613186565b604051602081830303815290604052611989565b9050600b8054905081610c2d9190613878565b9050600b8181548110610c69577f4e487b7100000000000000000000000000000000000000000000000000000000600052603260045260246000fd5b906000526020600020018054610c7e906137fd565b80601f0160208091040260200160405190810160405280929190818152602001828054610caa906137fd565b8015610cf75780601f10610ccc57610100808354040283529160200191610cf7565b820191906000526020600020905b815481529060010190602001808311610cda57829003601f168201915b5050505050915050919050565b610d15610d0f6113e1565b836114a2565b610d54576040517f08c379a0000000000000000000000000000000000000000000000000000000008152600401610d4b9061353e565b60405180910390fd5b610d6084848484611b29565b50505050565b60606000610d9a610d76846117dc565b604051602001610d869190613164565b604051602081830303815290604052611989565b9050600c8054905081610dad9190613878565b9050600c8181548110610de9577f4e487b7100000000000000000000000000000000000000000000000000000000600052603260045260246000fd5b906000526020600020018054610dfe906137fd565b80601f0160208091040260200160405190810160405280929190818152602001828054610e2a906137fd565b8015610e775780601f10610e4c57610100808354040283529160200191610e77565b820191906000526020600020905b815481529060010190602001808311610e5a57829003601f168201915b5050505050915050919050565b6060610e8f82611375565b610ece576040517f08c379a0000000000000000000000000000000000000000000000000000000008152600401610ec59061349e565b60405180910390fd5b6000600660008481526020019081526020016000208054610eee906137fd565b80601f0160208091040260200160405190810160405280929190818152602001828054610f1a906137fd565b8015610f675780601f10610f3c57610100808354040283529160200191610f67565b820191906000526020600020905b815481529060010190602001808311610f4a57829003601f168201915b505050505090506000610f78611b85565b9050600081511415610f8e578192505050610fd1565b600082511115610fc3578082604051602001610fab9291906130c6565b60405160208183030381529060405292505050610fd1565b610fcc84611b9c565b925050505b919050565b6000610fe26007611367565b90506000610fef82610778565b90506000610ffc83610be6565b9050600061100984610d66565b90506000838383604051602001611022939291906130ea565b6040516020818303038152906040529050600061103e866108b6565b9050600060088260098560405160200161105b949392919061311b565b604051602081830303815290604052905060006110a08461107b84611c43565b60405160200161108c9291906131a8565b604051602081830303815290604052611c43565b90506000816040516020016110b5919061320f565b60405160208183030381529060405290506111046040518060400160405280601581526020017f0a2d2d2d2d2d2d2d2d2d2d2d2d2d2d2d2d2d2d2d2d0000000000000000000000815250611264565b61110d81611264565b61114b6040518060400160405280601581526020017f2d2d2d2d2d2d2d2d2d2d2d2d2d2d2d2d2d2d2d2d0a0000000000000000000000815250611264565b611155338a611de2565b61115f8982611e00565b6111696007611e74565b61118c6040518060600160405280602581526020016139d3602591398a33611e8a565b7febb98688741ffa4c7589bf325de30cf7becb63de567842e1ccdb6cb949fdc82c338a6040516111bd9291906132ba565b60405180910390a1505050505050505050565b6000600560008473ffffffffffffffffffffffffffffffffffffffff1673ffffffffffffffffffffffffffffffffffffffff16815260200190815260200160002060008373ffffffffffffffffffffffffffffffffffffffff1673ffffffffffffffffffffffffffffffffffffffff16815260200190815260200160002060009054906101000a900460ff16905092915050565b6112fa8160405160240161127891906132fe565b6040516020818303038152906040527f41304fac000000000000000000000000000000000000000000000000000000007bffffffffffffffffffffffffffffffffffffffffffffffffffffffff19166020820180517bffffffffffffffffffffffffffffffffffffffffffffffffffffffff8381831617835250505050611f29565b50565b60007f01ffc9a7000000000000000000000000000000000000000000000000000000007bffffffffffffffffffffffffffffffffffffffffffffffffffffffff1916827bffffffffffffffffffffffffffffffffffffffffffffffffffffffff1916149050919050565b600081600001549050919050565b60008073ffffffffffffffffffffffffffffffffffffffff166002600084815260200190815260200160002060009054906101000a900473ffffffffffffffffffffffffffffffffffffffff1673ffffffffffffffffffffffffffffffffffffffff1614159050919050565b600033905090565b816004600083815260200190815260200160002060006101000a81548173ffffffffffffffffffffffffffffffffffffffff021916908373ffffffffffffffffffffffffffffffffffffffff160217905550808273ffffffffffffffffffffffffffffffffffffffff1661145c836109d4565b73ffffffffffffffffffffffffffffffffffffffff167f8c5be1e5ebec7d5bd14f71427d1e84f3dd0314c0f7b2291e5b200ac8c7c3b92560405160405180910390a45050565b60006114ad82611375565b6114ec576040517f08c379a00000000000000000000000000000000000000000000000000000000081526004016114e3906133de565b60405180910390fd5b60006114f7836109d4565b90508073ffffffffffffffffffffffffffffffffffffffff168473ffffffffffffffffffffffffffffffffffffffff16148061156657508373ffffffffffffffffffffffffffffffffffffffff1661154e8461057b565b73ffffffffffffffffffffffffffffffffffffffff16145b80611577575061157681856111d0565b5b91505092915050565b8273ffffffffffffffffffffffffffffffffffffffff166115a0826109d4565b73ffffffffffffffffffffffffffffffffffffffff16146115f6576040517f08c379a00000000000000000000000000000000000000000000000000000000081526004016115ed906134de565b60405180910390fd5b600073ffffffffffffffffffffffffffffffffffffffff168273ffffffffffffffffffffffffffffffffffffffff161415611666576040517f08c379a000000000000000000000000000000000000000000000000000000000815260040161165d9061339e565b60405180910390fd5b611671838383611f52565b61167c6000826113e9565b6001600360008573ffffffffffffffffffffffffffffffffffffffff1673ffffffffffffffffffffffffffffffffffffffff16815260200190815260200160002060008282546116cc9190613713565b925050819055506001600360008473ffffffffffffffffffffffffffffffffffffffff1673ffffffffffffffffffffffffffffffffffffffff16815260200190815260200160002060008282546117239190613632565b92505081905550816002600083815260200190815260200160002060006101000a81548173ffffffffffffffffffffffffffffffffffffffff021916908373ffffffffffffffffffffffffffffffffffffffff160217905550808273ffffffffffffffffffffffffffffffffffffffff168473ffffffffffffffffffffffffffffffffffffffff167fddf252ad1be2c89b69c2b068fc378daa952ba7f163c4a11628f55a4df523b3ef60405160405180910390a4505050565b60606000821415611824576040518060400160405280600181526020017f30000000000000000000000000000000000000000000000000000000000000008152509050611984565b600082905060005b6000821461185657808061183f9061382f565b915050600a8261184f9190613688565b915061182c565b60008167ffffffffffffffff811115611898577f4e487b7100000000000000000000000000000000000000000000000000000000600052604160045260246000fd5b6040519080825280601f01601f1916602001820160405280156118ca5781602001600182028036833780820191505090505b5090505b6000851461197d576001826118e39190613713565b9150600a856118f29190613878565b60306118fe9190613632565b60f81b81838151811061193a577f4e487b7100000000000000000000000000000000000000000000000000000000600052603260045260246000fd5b60200101907effffffffffffffffffffffffffffffffffffffffffffffffffffffffffffff1916908160001a905350600a856119769190613688565b94506118ce565b8093505050505b919050565b60008160405160200161199c91906130af565b6040516020818303038152906040528051906020012060001c9050919050565b8173ffffffffffffffffffffffffffffffffffffffff168373ffffffffffffffffffffffffffffffffffffffff161415611a2b576040517f08c379a0000000000000000000000000000000000000000000000000000000008152600401611a22906133be565b60405180910390fd5b80600560008573ffffffffffffffffffffffffffffffffffffffff1673ffffffffffffffffffffffffffffffffffffffff16815260200190815260200160002060008473ffffffffffffffffffffffffffffffffffffffff1673ffffffffffffffffffffffffffffffffffffffff16815260200190815260200160002060006101000a81548160ff0219169083151502179055508173ffffffffffffffffffffffffffffffffffffffff168373ffffffffffffffffffffffffffffffffffffffff167f17307eab39ab6107e8899845ad3d59bd9653f200f220920489ca2b5937696c3183604051611b1c91906132e3565b60405180910390a3505050565b611b34848484611580565b611b4084848484611f57565b611b7f576040517f08c379a0000000000000000000000000000000000000000000000000000000008152600401611b769061335e565b60405180910390fd5b50505050565b606060405180602001604052806000815250905090565b6060611ba782611375565b611be6576040517f08c379a0000000000000000000000000000000000000000000000000000000008152600401611bdd906134fe565b60405180910390fd5b6000611bf0611b85565b90506000815111611c105760405180602001604052806000815250611c3b565b80611c1a846117dc565b604051602001611c2b9291906130c6565b6040516020818303038152906040525b915050919050565b6060600082511415611c6657604051806020016040528060008152509050611ddd565b60006040518060600160405280604081526020016139f86040913990506000600360028551611c959190613632565b611c9f9190613688565b6004611cab91906136b9565b90506000602082611cbc9190613632565b67ffffffffffffffff811115611cfb577f4e487b7100000000000000000000000000000000000000000000000000000000600052604160045260246000fd5b6040519080825280601f01601f191660200182016040528015611d2d5781602001600182028036833780820191505090505b509050818152600183018586518101602084015b81831015611d9c576003830192508251603f8160121c168501518253600182019150603f81600c1c168501518253600182019150603f8160061c168501518253600182019150603f8116850151825360018201915050611d41565b600389510660018114611db65760028114611dc657611dd1565b613d3d60f01b6002830352611dd1565b603d60f81b60018303525b50505050508093505050505b919050565b611dfc8282604051806020016040528060008152506120ee565b5050565b611e0982611375565b611e48576040517f08c379a0000000000000000000000000000000000000000000000000000000008152600401611e3f9061345e565b60405180910390fd5b80600660008481526020019081526020016000209080519060200190611e6f92919061232a565b505050565b6001816000016000828254019250508190555050565b611f24838383604051602401611ea293929190613320565b6040516020818303038152906040527fe3849f79000000000000000000000000000000000000000000000000000000007bffffffffffffffffffffffffffffffffffffffffffffffffffffffff19166020820180517bffffffffffffffffffffffffffffffffffffffffffffffffffffffff8381831617835250505050611f29565b505050565b60008151905060006a636f6e736f6c652e6c6f679050602083016000808483855afa5050505050565b505050565b6000611f788473ffffffffffffffffffffffffffffffffffffffff16612149565b156120e1578373ffffffffffffffffffffffffffffffffffffffff1663150b7a02611fa16113e1565b8786866040518563ffffffff1660e01b8152600401611fc3949392919061326e565b602060405180830381600087803b158015611fdd57600080fd5b505af192505050801561200e57506040513d601f19601f8201168201806040525081019061200b919061266e565b60015b612091573d806000811461203e576040519150601f19603f3d011682016040523d82523d6000602084013e612043565b606091505b50600081511415612089576040517f08c379a00000000000000000000000000000000000000000000000000000000081526004016120809061335e565b60405180910390fd5b805181602001fd5b63150b7a0260e01b7bffffffffffffffffffffffffffffffffffffffffffffffffffffffff1916817bffffffffffffffffffffffffffffffffffffffffffffffffffffffff1916149150506120e6565b600190505b949350505050565b6120f8838361215c565b6121056000848484611f57565b612144576040517f08c379a000000000000000000000000000000000000000000000000000000000815260040161213b9061335e565b60405180910390fd5b505050565b600080823b905060008111915050919050565b600073ffffffffffffffffffffffffffffffffffffffff168273ffffffffffffffffffffffffffffffffffffffff1614156121cc576040517f08c379a00000000000000000000000000000000000000000000000000000000081526004016121c39061347e565b60405180910390fd5b6121d581611375565b15612215576040517f08c379a000000000000000000000000000000000000000000000000000000000815260040161220c9061337e565b60405180910390fd5b61222160008383611f52565b6001600360008473ffffffffffffffffffffffffffffffffffffffff1673ffffffffffffffffffffffffffffffffffffffff16815260200190815260200160002060008282546122719190613632565b92505081905550816002600083815260200190815260200160002060006101000a81548173ffffffffffffffffffffffffffffffffffffffff021916908373ffffffffffffffffffffffffffffffffffffffff160217905550808273ffffffffffffffffffffffffffffffffffffffff16600073ffffffffffffffffffffffffffffffffffffffff167fddf252ad1be2c89b69c2b068fc378daa952ba7f163c4a11628f55a4df523b3ef60405160405180910390a45050565b828054612336906137fd565b90600052602060002090601f016020900481019282612358576000855561239f565b82601f1061237157805160ff191683800117855561239f565b8280016001018555821561239f579182015b8281111561239e578251825591602001919060010190612383565b5b5090506123ac91906123b0565b5090565b5b808211156123c95760008160009055506001016123b1565b5090565b60006123e06123db846135aa565b613579565b9050828152602081018484840111156123f857600080fd5b6124038482856137bb565b509392505050565b60008135905061241a81613976565b92915050565b60008135905061242f8161398d565b92915050565b600081359050612444816139a4565b92915050565b600081519050612459816139a4565b92915050565b600082601f83011261247057600080fd5b81356124808482602086016123cd565b91505092915050565b600081359050612498816139bb565b92915050565b6000602082840312156124b057600080fd5b60006124be8482850161240b565b91505092915050565b600080604083850312156124da57600080fd5b60006124e88582860161240b565b92505060206124f98582860161240b565b9150509250929050565b60008060006060848603121561251857600080fd5b60006125268682870161240b565b93505060206125378682870161240b565b925050604061254886828701612489565b9150509250925092565b6000806000806080858703121561256857600080fd5b60006125768782880161240b565b94505060206125878782880161240b565b935050604061259887828801612489565b925050606085013567ffffffffffffffff8111156125b557600080fd5b6125c18782880161245f565b91505092959194509250565b600080604083850312156125e057600080fd5b60006125ee8582860161240b565b92505060206125ff85828601612420565b9150509250929050565b6000806040838503121561261c57600080fd5b600061262a8582860161240b565b925050602061263b85828601612489565b9150509250929050565b60006020828403121561265757600080fd5b600061266584828501612435565b91505092915050565b60006020828403121561268057600080fd5b600061268e8482850161244a565b91505092915050565b6000602082840312156126a957600080fd5b60006126b784828501612489565b91505092915050565b6126c981613747565b82525050565b6126d881613759565b82525050565b60006126e9826135ef565b6126f38185613605565b93506127038185602086016137ca565b61270c81613965565b840191505092915050565b6000612722826135fa565b61272c8185613616565b935061273c8185602086016137ca565b61274581613965565b840191505092915050565b600061275b826135fa565b6127658185613627565b93506127758185602086016137ca565b80840191505092915050565b6000815461278e816137fd565b6127988186613627565b945060018216600081146127b357600181146127c4576127f7565b60ff198316865281860193506127f7565b6127cd856135da565b60005b838110156127ef578154818901526001820191506020810190506127d0565b838801955050505b50505092915050565b600061280d603283613616565b91507f4552433732313a207472616e7366657220746f206e6f6e20455243373231526560008301527f63656976657220696d706c656d656e74657200000000000000000000000000006020830152604082019050919050565b6000612873601c83613616565b91507f4552433732313a20746f6b656e20616c7265616479206d696e746564000000006000830152602082019050919050565b60006128b3600a83613627565b91507f54484952445f574f5244000000000000000000000000000000000000000000006000830152600a82019050919050565b60006128f3602483613616565b91507f4552433732313a207472616e7366657220746f20746865207a65726f2061646460008301527f72657373000000000000000000000000000000000000000000000000000000006020830152604082019050919050565b6000612959601983613616565b91507f4552433732313a20617070726f766520746f2063616c6c6572000000000000006000830152602082019050919050565b6000612999606383613627565b91507f222c20226465736372697074696f6e223a20224120686967686c79206163636c60008301527f61696d656420636f6c6c656374696f6e206f6620737175617265732e222c202260208301527f696d616765223a2022646174613a696d6167652f7376672b786d6c3b6261736560408301527f36342c00000000000000000000000000000000000000000000000000000000006060830152606382019050919050565b6000612a4b600b83613627565b91507f5345434f4e445f574f52440000000000000000000000000000000000000000006000830152600b82019050919050565b6000612a8b602c83613616565b91507f4552433732313a206f70657261746f7220717565727920666f72206e6f6e657860008301527f697374656e7420746f6b656e00000000000000000000000000000000000000006020830152604082019050919050565b6000612af1600d83613627565b91507f3c2f746578743e3c2f7376673e000000000000000000000000000000000000006000830152600d82019050919050565b6000612b31603883613616565b91507f4552433732313a20617070726f76652063616c6c6572206973206e6f74206f7760008301527f6e6572206e6f7220617070726f76656420666f7220616c6c00000000000000006020830152604082019050919050565b6000612b97602a83613616565b91507f4552433732313a2062616c616e636520717565727920666f7220746865207a6560008301527f726f2061646472657373000000000000000000000000000000000000000000006020830152604082019050919050565b6000612bfd602983613616565b91507f4552433732313a206f776e657220717565727920666f72206e6f6e657869737460008301527f656e7420746f6b656e00000000000000000000000000000000000000000000006020830152604082019050919050565b6000612c63602e83613616565b91507f45524337323155524953746f726167653a2055524920736574206f66206e6f6e60008301527f6578697374656e7420746f6b656e0000000000000000000000000000000000006020830152604082019050919050565b6000612cc9600283613627565b91507f227d0000000000000000000000000000000000000000000000000000000000006000830152600282019050919050565b6000612d09602083613616565b91507f4552433732313a206d696e7420746f20746865207a65726f20616464726573736000830152602082019050919050565b6000612d49603183613616565b91507f45524337323155524953746f726167653a2055524920717565727920666f722060008301527f6e6f6e6578697374656e7420746f6b656e0000000000000000000000000000006020830152604082019050919050565b6000612daf602c83613616565b91507f4552433732313a20617070726f76656420717565727920666f72206e6f6e657860008301527f697374656e7420746f6b656e00000000000000000000000000000000000000006020830152604082019050919050565b6000612e15602983613616565b91507f4552433732313a207472616e73666572206f6620746f6b656e2074686174206960008301527f73206e6f74206f776e00000000000000000000000000000000000000000000006020830152604082019050919050565b6000612e7b602f83613616565b91507f4552433732314d657461646174613a2055524920717565727920666f72206e6f60008301527f6e6578697374656e7420746f6b656e00000000000000000000000000000000006020830152604082019050919050565b6000612ee1600a83613627565b91507f7b226e616d65223a2022000000000000000000000000000000000000000000006000830152600a82019050919050565b6000612f21602183613616565b91507f4552433732313a20617070726f76616c20746f2063757272656e74206f776e6560008301527f72000000000000000000000000000000000000000000000000000000000000006020830152604082019050919050565b6000612f87600a83613627565b91507f46495253545f574f5244000000000000000000000000000000000000000000006000830152600a82019050919050565b6000612fc7601d83613627565b91507f646174613a6170706c69636174696f6e2f6a736f6e3b6261736536342c0000006000830152601d82019050919050565b6000613007603183613616565b91507f4552433732313a207472616e736665722063616c6c6572206973206e6f74206f60008301527f776e6572206e6f7220617070726f7665640000000000000000000000000000006020830152604082019050919050565b600061306d600583613627565b91507f434f4c4f520000000000000000000000000000000000000000000000000000006000830152600582019050919050565b6130a9816137b1565b82525050565b60006130bb8284612750565b915081905092915050565b60006130d28285612750565b91506130de8284612750565b91508190509392505050565b60006130f68286612750565b91506131028285612750565b915061310e8284612750565b9150819050949350505050565b60006131278287612781565b91506131338286612750565b915061313f8285612781565b915061314b8284612750565b915061315682612ae4565b915081905095945050505050565b600061316f826128a6565b915061317b8284612750565b915081905092915050565b600061319182612a3e565b915061319d8284612750565b915081905092915050565b60006131b382612ed4565b91506131bf8285612750565b91506131ca8261298c565b91506131d68284612750565b91506131e182612cbc565b91508190509392505050565b60006131f882612f7a565b91506132048284612750565b915081905092915050565b600061321a82612fba565b91506132268284612750565b915081905092915050565b600061323c82613060565b91506132488284612750565b915081905092915050565b600060208201905061326860008301846126c0565b92915050565b600060808201905061328360008301876126c0565b61329060208301866126c0565b61329d60408301856130a0565b81810360608301526132af81846126de565b905095945050505050565b60006040820190506132cf60008301856126c0565b6132dc60208301846130a0565b9392505050565b60006020820190506132f860008301846126cf565b92915050565b600060208201905081810360008301526133188184612717565b905092915050565b6000606082019050818103600083015261333a8186612717565b905061334960208301856130a0565b61335660408301846126c0565b949350505050565b6000602082019050818103600083015261337781612800565b9050919050565b6000602082019050818103600083015261339781612866565b9050919050565b600060208201905081810360008301526133b7816128e6565b9050919050565b600060208201905081810360008301526133d78161294c565b9050919050565b600060208201905081810360008301526133f781612a7e565b9050919050565b6000602082019050818103600083015261341781612b24565b9050919050565b6000602082019050818103600083015261343781612b8a565b9050919050565b6000602082019050818103600083015261345781612bf0565b9050919050565b6000602082019050818103600083015261347781612c56565b9050919050565b6000602082019050818103600083015261349781612cfc565b9050919050565b600060208201905081810360008301526134b781612d3c565b9050919050565b600060208201905081810360008301526134d781612da2565b9050919050565b600060208201905081810360008301526134f781612e08565b9050919050565b6000602082019050818103600083015261351781612e6e565b9050919050565b6000602082019050818103600083015261353781612f14565b9050919050565b6000602082019050818103600083015261355781612ffa565b9050919050565b600060208201905061357360008301846130a0565b92915050565b6000604051905081810181811067ffffffffffffffff821117156135a05761359f613936565b5b8060405250919050565b600067ffffffffffffffff8211156135c5576135c4613936565b5b601f19601f8301169050602081019050919050565b60008190508160005260206000209050919050565b600081519050919050565b600081519050919050565b600082825260208201905092915050565b600082825260208201905092915050565b600081905092915050565b600061363d826137b1565b9150613648836137b1565b9250827fffffffffffffffffffffffffffffffffffffffffffffffffffffffffffffffff0382111561367d5761367c6138a9565b5b828201905092915050565b6000613693826137b1565b915061369e836137b1565b9250826136ae576136ad6138d8565b5b828204905092915050565b60006136c4826137b1565b91506136cf836137b1565b9250817fffffffffffffffffffffffffffffffffffffffffffffffffffffffffffffffff0483118215151615613708576137076138a9565b5b828202905092915050565b600061371e826137b1565b9150613729836137b1565b92508282101561373c5761373b6138a9565b5b828203905092915050565b600061375282613791565b9050919050565b60008115159050919050565b60007fffffffff0000000000000000000000000000000000000000000000000000000082169050919050565b600073ffffffffffffffffffffffffffffffffffffffff82169050919050565b6000819050919050565b82818337600083830152505050565b60005b838110156137e85780820151818401526020810190506137cd565b838111156137f7576000848401525b50505050565b6000600282049050600182168061381557607f821691505b6020821081141561382957613828613907565b5b50919050565b600061383a826137b1565b91507fffffffffffffffffffffffffffffffffffffffffffffffffffffffffffffffff82141561386d5761386c6138a9565b5b600182019050919050565b6000613883826137b1565b915061388e836137b1565b92508261389e5761389d6138d8565b5b828206905092915050565b7f4e487b7100000000000000000000000000000000000000000000000000000000600052601160045260246000fd5b7f4e487b7100000000000000000000000000000000000000000000000000000000600052601260045260246000fd5b7f4e487b7100000000000000000000000000000000000000000000000000000000600052602260045260246000fd5b7f4e487b7100000000000000000000000000000000000000000000000000000000600052604160045260246000fd5b6000601f19601f8301169050919050565b61397f81613747565b811461398a57600080fd5b50565b61399681613759565b81146139a157600080fd5b50565b6139ad81613765565b81146139b857600080fd5b50565b6139c4816137b1565b81146139cf57600080fd5b5056fe416e204e465420772f20494420257320686173206265656e206d696e74656420746f2025734142434445464748494a4b4c4d4e4f505152535455565758595a6162636465666768696a6b6c6d6e6f707172737475767778797a303132333435363738392b2fa2646970667358221220c60815fb50e753e403698c7a1433dd0f95ee3ccdd5f77e63df5a2298594c411864736f6c634300080000333c73766720786d6c6e733d27687474703a2f2f7777772e77332e6f72672f323030302f73766727207072657365727665417370656374526174696f3d27784d696e594d696e206d656574272076696577426f783d273020302033353020333530273e3c7374796c653e2e62617365207b2066696c6c3a2077686974653b20666f6e742d66616d696c793a2073657269663b20666f6e742d73697a653a20323470783b207d3c2f7374796c653e3c726563742077696474683d273130302527206865696768743d2731303025272066696c6c3d27272f3e3c7465787420783d273530252720793d273530252720636c6173733d27626173652720646f6d696e616e742d626173656c696e653d276d6964646c652720746578742d616e63686f723d276d6964646c65273e",
  "linkReferences": {},
  "deployedLinkReferences": {}
}